:020000040800F2
:1000000068080020F9020008CD470008C54700082D
:10001000C9470008110A00084D4D00080000000003
:10002000000000000000000000000000754A000809
:100030003D0A000800000000D1470008E54B000819
:100040001503000815030008150300080000000050
:100050001503000815030008150300080000000040
:100060001503000815030008000000001503000830
:100070001503000815030008150300081503000800
:1000800015030008150300081503000815030008F0
:1000900015030008150300081503000815030008E0
:1000A00015030008150300081503000815030008D0
:1000B00015030008150300081503000815030008C0
:1000C00015030008150300081503000815030008B0
:1000D00000000000150300081503000815030008C0
:1000E0001503000815030008150300081503000890
:1000F00015030008150300081503000800000000A0
:10010000000000001503000815030008150300088F
:10011000150300081503000815030008150300085F
:10012000150300081503000815030008150300084F
:10013000150300080000000000000000150300087F
:10014000150300080000000000000000000000008F
:10015000000000000000000015030008000000007F
:10016000000000000000000015030008150300084F
:10017000000000000000000000000000000000007F
:10018000000000000000000000000000000000006F
:10019000000000000000000000000000000000005F
:1001A000000000000000000015030008150300080F
:1001B00015030008150300081503000815030008BF
:1001C00015030008150300080000000000000000EF
:1001D00000000000000000000000000015030008FF
:1001E00015030008000000000000000000000000EF
:1001F00000000000000000000000000000000000FF
:1002000000000000150300081503000800000000AE
:1002100000000000150300080000000000000000BE
:1002200000000000000000000000000015030008AE
:10023000150300080000000000000000000000009E
:10024000000000000000000000000000150300088E
:10025000150300081503000800F002F800F03CF850
:100260000AA090E8000C82448344AAF10107DA4511
:1002700001D100F031F8AFF2090EBAE80F0013F027
:10028000010F18BFFB1A43F001031847E066000096
:1002900000670000103A24BF78C878C1FAD8520726
:1002A00024BF30C830C144BF04680C6070470000F0
:1002B0000023002400250026103A28BF78C1FBD86F
:1002C000520728BF30C148BF0B6070471FB506F00A
:1002D00038FB1FBD10B510BD00F027F91146FFF720
:1002E000F5FF05F019FA00F045F903B4FFF7F2FF46
:1002F00003BC00F04DF900000A4880470A48004757
:10030000FEE7FEE7FEE7FEE7FEE7FEE7FEE7FEE7C5
:10031000FEE7FEE7FEE7000004480549054A064BF4
:1003200070470000A54C0008590200086802002030
:1003300068080020680400206804002040EA0103E7
:1003400010B59B070FD1042A0DD310C808C9121F7E
:100350009C42F8D020BA19BA884201D9012010BDB8
:100360004FF0FF3010BD1AB1D30703D0521C07E085
:10037000002010BD10F8013B11F8014B1B1B07D1E9
:1003800010F8013B11F8014B1B1B01D1921EF1D15A
:10039000184610BD032A40F2308010F0030C00F024
:1003A000158011F8013BBCF1020F624498BF11F8AF
:1003B00001CB00F8013B38BF11F8013BA2F1040268
:1003C00098BF00F801CB38BF00F8013B11F00303E0
:1003D00000F07980083AC0F0088051F8043B083AF0
:1003E00051F804CBA0E80810F5E7121D5CBF51F8E6
:1003F000043B40F8043BAFF30080D20724BF11F860
:10040000013B11F801CB48BF11F8012B24BF00F8C4
:10041000013B00F801CB48BF00F8012B704702F008
:10042000FF0343EA032242EA024200F002B84FF01F
:1004300000020429C0F0128010F0030C00F01B80B1
:10044000CCF1040CBCF1020F18BF00F8012BA8BFBF
:1004500020F8022BA1EB0C0100F00DB85FEAC17C83
:1004600024BF00F8012B00F8012B48BF00F8012B36
:1004700070474FF0000200B5134694469646203967
:1004800022BFA0E80C50A0E80C50B1F12001BFF44D
:10049000F7AF090728BFA0E80C5048BF0CC05DF8B3
:1004A00004EB890028BF40F8042B08BF704748BF01
:1004B00020F8022B11F0804F18BF00F8012B704775
:1004C00070477047704710B5203AC0F00B80B1E814
:1004D0001850A0E81850B1E81850A0E81850203A79
:1004E000BFF4F5AF5FEA027C24BFB1E81850A0E882
:1004F000185044BF18C918C0BDE810405FEA827C9C
:1005000024BF51F8043B40F8043B08BF7047D207B2
:1005100028BF31F8023B48BF11F8012B28BF20F853
:10052000023B48BF00F8012B7047754600F02CF8DD
:10053000AE4605006946534620F00700854618B0D0
:1005400020B5FFF7E9FEBDE820404FF000064FF070
:1005500000074FF000084FF0000BAC46ACE8C009B4
:10056000ACE8C009ACE8C009ACE8C00921F007015B
:100570008D46704710B50446AFF300802046BDE8B5
:100580001040FFF7B2BE000000487047B0000020E6
:1005900001491820ABBEFEE72600020070470000AC
:1005A0002DE9F04F8DB040F2301AC2F2000A9AF8ED
:1005B0001D0011281AD140F20044C4F20224204642
:1005C0008021012201F0F4F9322000F0ABFF204637
:1005D0008021002201F0ECF9322000F0A3FF9AF80C
:1005E0002B008AF800000DB0BDE8F08F9AF81D00CE
:1005F00048F200052228C0F6000540F0FF812C7863
:100600006A78A978FF3AB2FA82F24FEA5219E8788A
:100610002E796F79AB7995F8078095F808E095F811
:1006200009C0FF2C95F80AB008BF09F10109FF299C
:10063000E97A08BF09F10109FF28287B08BF09F101
:100640000109FF2E6A7B08BF09F10109FF2FAE7B6C
:1006500008BF09F10109FF2BEF7B08BF09F1010970
:10066000B8F1FF0F2B7C08BF09F10109BEF1FF0FA4
:1006700095F811E008BF09F10109BCF1FF0F95F8E9
:1006800012C008BF09F10109BBF1FF0F95F81380F3
:1006900008BF09F10109FF29297D08BF09F10109F6
:1006A000FF28687D08BF09F10109FF2AAA7D08BF5C
:1006B00009F10109FF2EEE7D08BF09F10109FF2FA5
:1006C0002F7E08BF09F10109FF2B6B7E08BF09F1DE
:1006D0000109BEF1FF0F95F81AE008BF09F1010901
:1006E000BCF1FF0F95F81BC008BF09F10109B8F173
:1006F000FF0F95F81C8008BF09F10109FF29697FE8
:1007000008BF09F10109FF2808BF09F10109FF2A03
:1007100008BF09F10109FF2E08BF09F10109FF2FE8
:1007200008BF09F10109FF2B08BF09F10109BEF15A
:10073000FF0F08BF09F10109BCF1FF0F08BF09F164
:100740000109B8F1FF0F08BF09F10109FF2908BF2E
:1007500009F101095FFA89F01928C0F00B8140F214
:100760000044C4F2022420468021012201F020F935
:10077000642000F0D7FE2046802100224FF0000BBD
:1007800001F016F94FF4FA7000F0CCFE20468021FB
:10079000012201F00DF9642000F0C4FE2046802102
:1007A000002201F005F94FF4FA7000F0BBFE20467C
:1007B0008021012201F0FCF8642000F0B3FE204605
:1007C0008021002201F0F4F84FF4FA7000F0AAFE44
:1007D00020468021012201F0EBF8642000F0A2FE07
:1007E00020468021002201F0E3F84FF47A7000F0F7
:1007F00099FE012000F096FECDF820B000F0ECFF4D
:100800000420099002200A9001200C9007200B90F0
:1008100009A808A900F09AFE079000F02BFF0A2013
:1008200000F080FE11208AF81D006FF0010000BF6B
:100830000AEB00018A7FC97F82EA0B0253B257009C
:10084000C3F3C2137FB283EA4202C7F3C213570055
:1008500083EA42027BB25700C3F3C2137FB283EA3A
:100860004202C7F3C213570083EA42027BB2570029
:10087000C3F3C2137FB283EA4202C7F3C213570025
:1008800083EA42027BB25700C3F3C2137FB283EA0A
:100890004202C7F3C213023083EA4202242881EAEB
:1008A00002014AB24FEA4103C2F3C2125BB282EACA
:1008B0004101C3F3C2124FEA410382EA41015AB235
:1008C0004FEA4103C2F3C2125BB282EA4101C3F3B1
:1008D000C2124FEA410382EA41015AB24FEA410390
:1008E000C2F3C2125BB282EA4101C3F3C2124FEA01
:1008F000410382EA41015AB24FEA4103C2F3C212F4
:100900005BB282EA4101C3F3C21282EA410B8FD18A
:100910008AF842B0BAF840009AF84240DAE90B6E21
:1009200040EA0440DAE90DBC08F07F440AF11C07F4
:1009300004EB000848F200008ECFDAF83C50C0F615
:10094000000000F5B030CDE90076CDE902EBCDE94D
:1009500004C5CDF8188000F03FF940420799C0B2B5
:1009600081421CBFA9F101095FEA09607FF4F2AE80
:1009700004F01AFB72B600F0A7FD01F089FD4EF2FB
:100980001000CEF2000000218160416001604FF054
:10099000FF31C0F87011C0F87012C0F87411C0F8BF
:1009A0007412C0F87811C0F87812C0F87C11C0F841
:1009B0007C12C0F88011C0F88012C0F88411C0F811
:1009C0008412C0F88811C0F88812C0F88C11C0F8E1
:1009D0008C124EF6085048F20001CEF20000C0F62C
:1009E000000101600168096881F3088800684068B7
:1009F00040F0010080470DB0BDE8F08F012000F00D
:100A000091FD05F5B03000F069F804F0CDFA000072
:100A1000FEE7000010B500F0D1FF40F23014C2F242
:100A20000004A168401A42F210718842E06038BFA9
:100A300010BD00F0C3FFA06010BD000070470000B3
:100A400072B600BFFEE7000070B542F22006044611
:100A5000C4F2020600F0B2FF316811F00B0F20D093
:100A6000BCB30546601C11D1306810F00B0F18D0D4
:100A7000306810F00B0F14D0306810F00B0F10D04E
:100A8000306810F00B0FEFD10BE000BF00F096FFC5
:100A9000401BA04284BF032070BD306810F00B0FD4
:100AA000F4D1306810F41E0009D040F29001C2F277
:100AB00000014A6802434A603061012070BD30681D
:100AC000C0035CBF002070BD4FF480303061002057
:100AD00070BD00F073FF032070BD000070B586B0DC
:100AE000002542F200060446C0F60006019500F01B
:100AF00073FE0420029006F5F0304FF0FF3206F549
:100B00006041844238BF02228C4238BF01220392E6
:100B10000122B442059253D306F50052944201D209
:100B200001254DE006F58042944201D2022547E0BE
:100B300006F5C042944201D2032541E006F5004289
:100B4000944201D204253BE006F52042944201D2B2
:100B5000052535E006F540420725944238BF0625B5
:100B60008C422DD306F580318C4201D2002527E03E
:100B700006F590318C4201D2012521E006F5A03125
:100B80008C4201D202251BE006F5B0318C4201D225
:100B9000032515E006F5C0318C4201D204250FE093
:100BA00006F5D0318C4201D2052509E04FF0FF3522
:100BB00006F5E031844238BF07258C4238BF062550
:100BC00002A801A9049500F0C1FC044600F052FD02
:100BD000204606B070BD00002DE9F0418EB0804681
:100BE000DDE919C0DDE9176E14AFB0CF8DE8BE00A6
:100BF000CDE9066EADF82400000CCDF820C08DF8CC
:100C0000260000F0E9FD9DE80F000DF1280C8CE8AE
:100C10000F000AAA0220414600F03AFD30B101243B
:100C200000F028FD20460EB0BDE8F08142F220051C
:100C3000C4F202052868C0071CBF28685FEAC070BC
:100C400005D02868C00702D02868C007F2D1079AEB
:100C500004AB0BCB0D920AAA0BC208F110010AAA31
:100C6000022000F015FD18BB06E000BF2868C00791
:100C700009D02868C00706D02868C0071CBF2868AC
:100C80005FEAC070F2D14FF0FF308DF83700CDF839
:100C90003300CDF82F000898DDF823100A90CDF826
:100CA0002B1008F120010AAA022000F0F1FC30B15B
:100CB000012400F0DFFC20460EB0BDE8F0810024E6
:100CC0002868C00709D02868C00706D02868C00770
:100CD00003D02868C007F3D1A2E7002400F0CAFCC3
:100CE00020460EB0BDE8F0812DE9F0478CB04EF201
:100CF0000004C0F60104217840F23010C2F2000076
:100D0000017762780B464277A27800278277E278F3
:100D1000C277227980F82020627980F82120A27998
:100D200080F82220E27980F82320227A80F824209B
:100D3000627A80F82520A27A80F82620E27A80F86C
:100D40002720227B80F82820627B80F82920A27B44
:100D500080F82A20E27B80F82B20227C80F82C204F
:100D6000627C80F82D20A27C80F82E20E27C80F826
:100D70002F20227D80F83020627D80F83120A27DF6
:100D800080F83220E27D80F83320227E80F8342003
:100D9000627E80F83520A27E80F83620E27E80F8E0
:100DA0003720227F80F83820627F80F83920A27FA8
:100DB00080F83A20E27F80F83B2094F8202080F8E9
:100DC0003C2094F8212080F83D2094F8222080F8DF
:100DD0003E2094F8232080F83F2094F8242080F8C7
:100DE000402094F8252080F8412094F8262080F8AF
:100DF000422000227B405FB25E00C7F3C21776B28A
:100E000087EA4303C6F3C2175E0087EA430377B25B
:100E10005E00C7F3C21776B287EA4303C6F3C21770
:100E20005E0087EA430377B25E00C7F3C21776B26B
:100E300087EA4303C6F3C2175E0087EA430377B22B
:100E40005E00C7F3C21776B287EA4303C6F3C21740
:100E5000242A87EA430700EB02035E7F87EA06073E
:100E60007EB24FEA4705C6F3C2166DB286EA47075F
:100E7000C5F3C2164FEA470586EA47076EB24FEA46
:100E80004705C6F3C2166DB286EA4707C5F3C21618
:100E90004FEA470586EA47076EB24FEA4705C6F3B1
:100EA000C2166DB286EA4707C5F3C2164FEA470578
:100EB00086EA47076EB24FEA4705C6F3C2166DB21F
:100EC00086EA4707C5F3C21686EA470702D09B7F2A
:100ED00002328FE740F23806C2F2000632789142C1
:100EE00004D090F84200F9B2884202D10CB0BDE8BB
:100EF000F0870120012500F015FB0027079700F07F
:100F00006BFC042008900220099007200A9008A892
:100F100007A90B9500F01AFB804600F0ABFB0A20F6
:100F200000F000FB6FF0010031188A78C9787A4030
:100F300053B25700C3F3C2137FB283EA4202C7F32E
:100F4000C213570083EA42027BB25700C3F3C213B5
:100F50007FB283EA4202C7F3C213570083EA420218
:100F60007BB25700C3F3C2137FB283EA4202C7F3D6
:100F7000C213570083EA42027BB25700C3F3C21385
:100F80007FB283EA4202C7F3C213023083EA42020D
:100F9000242881EA02014AB24FEA4103C2F3C21295
:100FA0005BB282EA4101C3F3C2124FEA410382EA13
:100FB00041015AB24FEA4103C2F3C2125BB282EA64
:100FC0004101C3F3C2124FEA410382EA41015AB21E
:100FD0004FEA4103C2F3C2125BB282EA4101C3F39A
:100FE000C2124FEA410382EA41015AB24FEA410379
:100FF000C2F3C2125BB282EA4101C3F3C21282EAB7
:10100000410791D186F82670B08C96F8265006F1EB
:10101000100E9EE8805440EA054096E80E02366ABB
:1010200002ADCDE9009785E800540690204605966C
:10103000FFF7D2FD4042C0B2804566D140F2004485
:10104000C4F2022420468021002200F0B1FC3220AC
:1010500000F068FA20468021012200F0A9FC9620C9
:1010600000F060FA20468021002200F0A1FC32202E
:1010700000F058FA20468021012200F099FC4FF43C
:10108000FA7000F04FFA20468021002200F090FC18
:10109000322000F047FA20468021012200F088FC2F
:1010A000962000F03FFA20468021002200F080FCCC
:1010B000322000F037FA20468021012200F078FC2F
:1010C0004FF4FA7000F02EFA20468021002200F042
:1010D0006FFC322000F026FA20468021012200F029
:1010E00067FC962000F01EFA20468021002200F0C6
:1010F0005FFC322000F016FA20468021012200F029
:1011000057FC4FF4FA7000F00DFA03F04DFF0000A9
:1011100080B5CB0701D1012080BD4FF01B0C0CF135
:10112000030E21FA0EF3DB071ED10CF1020E21FA99
:101130000EF3DB0701BF0CF1010E0EF01F0321FAC5
:1011400003F35FEAC3730FD1BEF1000F0AD00CF0B6
:101150001F0321FA03F3DB07ACF1040CDFD00CF121
:10116000040E01E04FF0FF3E4FEAF20CBCF1030F1A
:10117000D1D8DFE80CF01102060CBEF10F0FCAD86F
:101180000AE0BEF1070F84BF012080BD04E0BEF17C
:10119000060F84BF012080BD00684161816821F095
:1011A000180111438160002080BD0000F0B5864623
:1011B00002208EF81D00DEF820300020012B10D018
:1011C000022B1CD0032B40F02281DEF80000002A05
:1011D00000F01C81531E032B02F0030C1FD20022CF
:1011E0002EE0B0EB920F00F099809308DEF800003B
:1011F0005D1E032D03F0030C38D2002351E00023C1
:10120000B3EB520F00F0E1805308DEF800005E1EE1
:10121000032E03F0030C80F08E800023B0E0A2EBDD
:101220000C05A1F11004002254F8103F04320360B1
:10123000954263680360A3680360E3680360F3D1C9
:10124000BCF1000F00F0E28051F82230BCF1010F38
:10125000036000F0DB8001EB8201BCF1020F4A6801
:10126000026000F0D38089680160CFE001F10F04D3
:10127000A3EB0C05002300BF54F80F6C043336BAFF
:10128000066054F80B6C9D4236BA066054F8076C41
:1012900036BA066054F8036C04F1100436BA0660DE
:1012A000EAD1BCF1000F37D09C00651C4D5D11F8F0
:1012B00023602D0445EA0665A61C8E5D033445EACD
:1012C00006250C5DBCF1010F2C44046024D05C1C8D
:1012D000A5006E1C8E5D11F82440360446EA0464B5
:1012E000AE1C8E5D033544EA06244D5DBCF1020F51
:1012F0002C44046010D002339F007E1C8E5D11F8D8
:101300002330360446EA0363BE1C8E5D033743EA8E
:101310000623CF5D3B44036022F0030002F003028A
:10132000032A5AD0022A66D0012A6DD1085CDEF861
:101330000010087068E001F10E04A3EB0C05002317
:1013400034F80E6C34F80C7C043347EA06469D42B0
:10135000066034F80A6C34F8087C47EA06460660F2
:1013600034F8066C34F8047C47EA0646066034F824
:10137000026C278804F1100447EA06460660DFD1B4
:10138000BCF1000F1FD09C00023431F823500C5BDD
:10139000BCF1010F44EA0544046014D05C1CA500B4
:1013A000023531F824404D5BBCF1020F45EA04449C
:1013B000046008D002339F00023731F82330CF5B3E
:1013C00047EA0343036022F00103D007DEF8000080
:1013D0001CBF31F81310018018E040F001030A5CD3
:1013E000CB5C40F0020043EA0222DEF800301A80B3
:1013F000085C187008E00A5C40F00100085CDEF848
:10140000001040EA02200880DEF800000068012198
:101410008EF81D10F0BD000010B5002804BF01209B
:1014200010BD0446407F20B900202077204600F000
:1014300031F802206077207948B1D4E902122046C1
:10144000FFF766FE00281CBF012010BD09E02068E0
:1014500041F6B751C0F2C1414161816821F01801E4
:1014600081606079002814BF20694FF0FF30216847
:10147000D4E905230861886820F060001043886083
:10148000886820F080001843886001206077002081
:1014900010BD000081B0006843F20001C4F20201F7
:1014A000884201D001B0704740F68840C4F2024043
:1014B000016841F480510160006800F480500090A0
:1014C000009801B07047000080B540F660404CF2D3
:1014D000FF11C4F20240CDF6FE71416140F22B6172
:1014E000C4F2800147F6000281610021C0F27F1240
:1014F00041618161C26140F6E002C0F21002C16147
:1015000002624DF20302C0F20A120162026041F669
:10151000FF52C0F21F0201604260416000F0ECFA2D
:10152000002080BDB0B5044600F048FA054640F200
:101530003000C2F200000078611C18BF044400BFF4
:1015400000F03CFA401BA042FAD3B0BD2DE9F04FA9
:1015500081B040F2900BC2F2000B9BF80020012AF0
:1015600002BF022001B0BDE8F08F044601208BF8D5
:10157000000000264FF47A708946CBF80460FFF72C
:1015800063FA20B18BF8006001B0BDE8F08F2068ED
:1015900048F2080220F0004142F228079142C4F2CA
:1015A0000207CBF8080007D1606800F003010329A7
:1015B00036D148F2200042E04FF0FF30C9F8000079
:1015C000D4E902502844854241D24FF6D77A4EF2F0
:1015D0003F08C7F6FF7AAE01C7F6FF78606841465C
:1015E00010F00100386808BF6FF4FE514FF024027C
:1015F00000EA01003860386808BF0AF14D02304344
:10160000104338604FF47A70FFF71EFA08BBD4E934
:1016100002010135403608448542DFD300201AE03C
:10162000C1074FF6D771C7F6FF7104D03A680A4078
:1016300042F028023A60800704D501F15100396870
:10164000084338604FF47A70FFF7FEF904E0002099
:1016500002E0C9F80050002621684FF000423B68C4
:1016600062EA0101194039608BF8006001B0BDE801
:10167000F08F000042F22800C4F20200016841F03D
:10168000010101600068012121EA000070470000AB
:101690002DE9F04381B040F29009C2F200091546ED
:1016A00099F80020012A02BF022001B0BDE8F083B2
:1016B0008046012089F80000002042F220040E46F6
:1016C000C4F20204C9F8040000F078F9216811F0AE
:1016D0000B0F0BD0074600BF00F070F9C01BB0F530
:1016E0007A7F14D8206810F00B0FF5D1206810F421
:1016F0001E0013D0D9F804100143C9F8041020616A
:101700000120002189F8001001B0BDE8F08303201A
:10171000002189F8001001B0BDE8F0832068C00303
:1017200044BF4FF48030206128F000400228C9F8FF
:10173000088017D1A06840F00200A060EFF310808D
:1017400072B62968316069687160A968B160E9683A
:10175000F16080F3108800F031F9216811F00B0F6F
:101760000CD117E0A06840F00200A060288830800B
:1017700000F024F9216811F00B0F0BD0054600BFD3
:1017800000F01CF9401BB0F57A7F0FD8206810F0EC
:101790000B0FF5D1206810F41E0009D0D9F8041001
:1017A0000143C9F804102061012008E0032006E08D
:1017B0002068C00344BF4FF48030206100204FF008
:1017C0002041A26861EA08011140A160002189F866
:1017D000001001B0BDE8F08342F20400C4F2020040
:1017E000416AC90704BF0020704740F22311C4F2C8
:1017F0006751016048F6AB11CCF6EF510160406AC9
:1018000000F00100704700002DE9F04F82B00C6835
:10181000002C00F0C28047F67F72C0F22F0202EA6D
:1018200090224FF001090092002200260027012596
:1018300001900FE0BCF1030F5FD100BF0C680837C7
:1018400034FA05F305F1010506F1020602F104027E
:1018500000F0A380A5F1010A09FA0AFE14EA0E0BB2
:10186000ECD0D1F804C04CF01004122C1FD16FF052
:10187000030303EA5A0402F01C0300EB0409D9F83D
:1018800020C05846D1F810B00F2404FA03F80BF02A
:101890000F042CEA080C04FA03F343EA0C03834612
:1018A0000198C9F82030D1F804C04FF0010903684D
:1018B0000324B4406FEA0408A3430CF00304B440CB
:1018C0002343BCF1120F036017D809FA0CF313F08D
:1018D000061FAFD08368CC6803EA0803B4402343F3
:1018E000836043684FEA1C1423EA0E0304FA0AF4E7
:1018F0002343BCF1030F4360A0D0C3688C6803EAA4
:101900000803B44023435FEACC04C36096D542F297
:1019100000082AF00303C4F2024808EB030EDEF8C5
:1019200060C007F018040F23A3402CEA030C009BAF
:1019300003FA04F44CEA0403CEF86030D8F800C08F
:10194000D1F804E04CEA0B035FEACE2458BF2CEA3E
:101950000B03C8F80030D8F804C05FEA8E234CEAC5
:101960000B0458BF2CEA0B04C8F80440D8F884C014
:101970005FEA8E334CEA0B0458BF2CEA0B04C8F81C
:101980008440D8F880C05FEACE334CEA0B0458BFDD
:101990002CEA0B04C8F8804050E702B0BDE8F08F95
:1019A000426902EA0103914341EA034181617047C0
:1019B0001823002A08BF2823C150704740F2602036
:1019C000C2F200000068704740F20041C4F2030117
:1019D000086840F0010200200A60704740F23000C1
:1019E00040F26021C2F20000C2F2000100780A68F1
:1019F000104408607047000080B5032000F0ACF888
:101A000000F0FAFD40F62041C4F20241096846F6B2
:101A10005C1201F00F01C0F60002515CC84040F2B8
:101A20006001C2F200010860042001F095FD0F2062
:101A300000F008F800281CBF012080BD00F05EF80F
:101A4000002080BD70B540F23006C2F20006317849
:101A500000293FD004464EF21000CEF2000000688C
:101A600040070FD401F0D0FD02281AD0012825D05C
:101A700090BB40F26000C2F20000006831784FF481
:101A8000FA5206E040F26000C2F2000000684FF433
:101A90007A72B2FBF1F1B0FBF1F001F0A3FDC8B92D
:101AA0001FE030784FF47A71B1FBF0F04FF4004151
:101AB000B1FBF0F001F096FD60B912E030784FF420
:101AC0007A71B1FBF0F04FF4FA41B1FBF0F001F0A4
:101AD00089FD30B1012070BD002001F083FD002898
:101AE000F8D14FF0FF3021460022002500F008F821
:101AF0002846746070BD0000704700007047000009
:101B000010B54EF60C5CCEF2000CDCF80030C3F3DE
:101B1000022E8EF00704042C28BF0424BEF1030318
:101B20004FF0FF3E38BF00230EFA04F4A143994062
:101B30000EFA03F39A4300F00F03043B114363448E
:101B400009010C3300F16042B0F1FF3FC8BF02F55C
:101B50006443197010BD00004EF60C51CEF2000126
:101B60000A684FF6FF031A4060F30A2242F08060D1
:101B700040F0FD70086070472DE9F04704460068AA
:101B800040F62848C101C4F2024807D5D8F8C01071
:101B9000226B21F040411143C8F8C010C00714D097
:101BA000606BC11E032909D340B1012813D104F190
:101BB000080002F00FFE064640B9606BD8F8B0107E
:101BC00021F007010843C8F8B000002620788007FC
:101BD00005D4354621E0012620788007F9D5A06B91
:101BE0006FF0020101EBF001354603290AD34FEAF9
:101BF000F000354630B1012830D104F1080002F080
:101C0000E9FD05462F464DB9D8F8B000A16B20F08C
:101C1000380008430025C8F8B00037462078400750
:101C200021D5E06B6FF0020101EBB011032909D35C
:101C30004FEAB01030B1012836D104F1080002F0AB
:101C4000C9FD05462E467DB9D8F8B000E16B20F4F9
:101C5000E07008430025C8F8B00004E00125012722
:101C600020784007DDD43E466078C00621D5206C40
:101C70006FF0020101EB3061032909D34FEA3060B4
:101C800030B101283CD104F1080002F0A3FD054663
:101C90002F467DB9D8F8B800216C20F0E0600843E9
:101CA0000025C8F8B80004E0012501266078C006C8
:101CB000DDD437466078800627D5606C6FF001016F
:101CC00001EB3041022909D34FEA304030B10128FD
:101CD00010D104F1080002F07DFD05462E465DB9E5
:101CE000D8F8BC00616C20F4403008430025C8F8E7
:101CF000BC000AE0012501266078400609D424E0F2
:101D00000125012760788006D7D43E4660784006DA
:101D10001BD5A06C6FF0010101EBB041022909D382
:101D20004FEAB04030B1012830D104F1080002F090
:101D300051FD05462F464DB9D8F8BC00A16C20F4E2
:101D4000402008430025C8F8BC003746A078C007EB
:101D500021D0E06C002818BFB0F1007F0BD12E46D7
:101D6000D5B9D8F8BC00E16C20F0407008430025DC
:101D7000C8F8BC000FE0B0F1807F2DD104F108005D
:101D800002F028FD05462E4635B9EAE70125012770
:101D9000A078C007DDD13E466079C00621D5206D10
:101DA000002818BFB0F1006F0BD12F46D5B9D8F875
:101DB000BC00216D20F0406008430025C8F8BC003D
:101DC0000FE0B0F1806F61D104F1080002F002FD74
:101DD00005462F4635B9EAE7012501266079C00698
:101DE000DDD43746D4E9000140F61C4AC4F2024A69
:101DF00009050CD5DAF8001021F40041CAF80010EA
:101E0000D4F88010DAF800201143CAF800108003DB
:101E10001BD5606D6FF0020101EB3021032909D35E
:101E20004FEA302030B1012833D104F1080002F02C
:101E3000D1FC05462E464DB9D8F8B400616D20F4AA
:101E4000E06008430025C8F8B4003E46A07840078B
:101E500024D5A06D6FF0020101EB3031032909D3C5
:101E60004FEA303030B1012828D104F1080002F0E7
:101E7000B1FC05462F4695B9D8F8B400A16D20F401
:101E8000E04008430025C8F8B40007E00125012719
:101E9000A8E701250126A0784007DAD43746A078C4
:101EA000800610D5606E052828D802282DD0294636
:101EB0009DB3D4E9000292050AD43CE00125012734
:101EC000A0788006EED43946D4E90002920532D5D6
:101ED000A26E42F00803082B0AD1A9465DB9D8F8D2
:101EE000C030002523F008031A43C8F8C02022E0C0
:101EF00001254FF00109800120D47AE0012501215C
:101F0000D4E900029205E3D415E004F1080002F0E0
:101F100061FC0546002D2946CBD1D8F8C000616E82
:101F200020F0070008430025C8F8C0003946D4E96E
:101F300000029205CCD4894680015AD54FF6084755
:101F4000CFF6FF775AF8070040F001004AF8070083
:101F5000FFF734FD064600BF5AF80700C00707D157
:101F6000FFF72CFD801B0228F6D90325032041E052
:101F7000002D28463ED1D8F8C80010F4407017D084
:101F8000A16F884211D0D8F8C800D8F8C81020F442
:101F9000407041F48031C8F8C810D8F8C81021F456
:101FA0008031C8F8C810C8F8C800C00740F02A81BE
:101FB000A06FDAF800104FF6CF7300F4407221F4EE
:101FC0007C51C0F2FF0303EA1013B2F5407F08BF53
:101FD0001943CAF80010D8F8C8106FF31F3021F465
:101FE0004071C8F8C810D8F8C81000250843C8F8D0
:101FF000C800484621684A011BD5226E6FF00103D4
:1020000003EB3213022B0AD34FEA32133BB1012BFD
:102010002ED1D8F8003043F40033C8F800302F46F2
:1020200045B9D8F8C030002523F030031A43C8F86A
:10203000C020074608011FD5E06EC11E02290BD340
:10204000012800F0B880002840F0BF80D8F80000D8
:1020500040F40030C8F800002E4675B9D8F8B80032
:10206000E16E20F0070008430025C8F8B80003E03F
:10207000012501270801DFD43E46E078C0061FD5C0
:10208000206F6FF0020101EBF00102290DD34FEA3E
:10209000F000012800F09C80002840F0A380D8F8D0
:1020A000000040F40030C8F800002F464DB9D8F8C1
:1020B000B800216F20F0380008430025C8F8B800A8
:1020C0003746E07880061FD5606F6FF0020101EBA4
:1020D000B01102290DD34FEAB010012800F085801D
:1020E000002840F08C80D8F8000040F40030C8F898
:1020F00000002E464DB9D8F8B800616F20F4E070AA
:1021000008430025C8F8B8003E462079400720D58E
:10211000E06D58B1B0F5007F0BD0B0F5807F47D1AE
:10212000D8F8000040F40030C8F800002F468DB900
:1021300006E004F1080002F04DFB05462F464DB9BC
:10214000D8F8C000E16D20F4407008430025C8F8BD
:10215000C00037462079C0065CBF3846BDE8F0872E
:10216000E06F30280DD020280FD010281EBF012589
:102170002846BDE8F087D8F8000040F40030C8F8E1
:1021800000004DB12846BDE8F08704F1080002F0D8
:1021900021FB0546002DF5D1D8F8BC00E16F20F0F9
:1021A000300008433D46C8F8BC002846BDE8F0872B
:1021B00001250127CEE704F1080002F00BFB0546DC
:1021C000002D2E467FF459AF48E70125012654E73C
:1021D00004F1080002F0FEFA0546002D2F467FF4B8
:1021E00070AF64E7012501276BE704F1080002F0F6
:1021F000F1FA0546002D2E467FF487AF7BE70125D7
:10220000012682E7FFF7DAFB064641F2883703250D
:10221000D8F8C80080073FF5CBAEFFF7CFFB801B97
:10222000B8424FF00300F3D9E4E600002DE9F04393
:1022300081B0002800F0CA8042F20008C4F202080F
:102240000446D8F800000D4600F00F0088420DD279
:10225000D8F8000020F00F002843C8F80000D8F894
:10226000000000F00F00A84240F0B080206840F667
:102270002047C106C4F202470CD561693A68702351
:1022800003EA1222914205D93A6822F4E04242EA76
:102290000121396001070CD521693A68702303EAEE
:1022A0001212914205D93A6822F4E06242EA011121
:1022B000396041070AD5E1683A6802F0700291423C
:1022C00004D93A6822F070021143396081070AD5B7
:1022D000A1683A6802F00F02914204D93A6822F0EC
:1022E0000F0211433960C00767D1206881070AD502
:1022F000A1683A6802F00F02914204D23A6822F0D3
:102300000F0211433960D8F8001001F00F01A94203
:102310000CD9D8F8001021F00F012943C8F800109B
:10232000D8F8001001F00F01A9424FD141070AD59A
:10233000E1683A6802F07002914204D23A6822F0F1
:1023400070021143396001070CD521693A68702386
:1023500003EA1212914205D23A6822F4E06242EA9C
:1023600001113960C0060CD560693968702202EA33
:102370001121884205D2396821F4E04141EA002068
:10238000386000F039F9396846F65C1201F00F0147
:10239000C0F60002525C40F23401C2F2000109684A
:1023A00040F2600320FA02F2C2F2000308461A600B
:1023B00001B0BDE8F043FFF745BB6068022809D0D3
:1023C00003285BD157F8201C890107D4012001B0F4
:1023D000BDE8F08357F8201C8903F7D557F8041C93
:1023E00021F00301084347F8040CFFF7E7FA61689E
:1023F0000646032941F288392BD0022937D001291A
:1024000010D100BF57F8040C00F0180008283FF462
:102410006CAFFFF7D3FA801B48454FF00300F1D9AA
:102420000DE000BF57F8040C10F0180F3FF45DAF3B
:10243000FFF7C4FA801B48454FF00300F2D901B002
:10244000BDE8F083FFF7BAFA801B48454FF0030060
:10245000F5D857F8040C00F018001828F2D144E71A
:10246000FFF7ACFA801B48454FF00300E7D857F858
:10247000040C00F018001028F2D136E757F8201CA1
:10248000012802D18905A1D5A8E789079ED5A5E72E
:10249000F0B581B042F20006C4F20206306800F0E6
:1024A0000F00022809D83068032161F3030030606F
:1024B000306800F00F00032824D140F60047C4F232
:1024C0000247FFF77BFA3968044641F001003860A3
:1024D0003868800707D4FFF771FA001B0228F7D984
:1024E000032001B0F0BD386820F0180038604FF4C8
:1024F0008000386140F23400C2F200000068FFF74B
:10250000A1FA10B1012001B0F0BDFFF757FA04465F
:10251000002041F28835F861386200BFF86910F098
:10252000180F05D0FFF74AFA001BA842F6D9D7E7E3
:1025300038684EF6FB21CFF6F671084038603868EF
:1025400020F480103860FFF739FA3968054621F029
:10255000807038603C68FFF731FAA101044603D56A
:10256000601B0228F6D9BBE7386820F0806038602D
:102570003868000107D5FFF721FA001B02284FF049
:102580000300F5D935E040F280210020C0F20111AE
:10259000B8627963B863F862F9633864396821F422
:1025A0008021396038654FF0FF30B865D7F8F40006
:1025B00049F2000140F40000C7F8F40040F2600066
:1025C000C2F20000C0F2D0310160306810F00C0F90
:1025D00009D03068032161F303003060306800F0F7
:1025E0000F0003288ED10F20FFF72CFA002818BF08
:1025F000012001B0F0BD000080B540F60041C4F2FA
:102600000241C86900F01800082802BF40F6001017
:10261000C0F23D0080BDC86910F0180F34D0C86901
:1026200000F01800102802BF41F20020C0F27A002A
:1026300080BDC86900F01800182849F20000C0F2F7
:10264000D03063D1D1F828E08A6AC2F3052C8A6AB7
:10265000BCF1000FC2F300128B6BC3F3CC0303FB7E
:1026600002F200EE102AB8EE400A04BF002080BD3E
:102670000EF00303032B14D0012B15D10A68920628
:1026800015D49FED241A1AE00868800649F200006C
:10269000C0F2D03058BF80BD0968C1F3C101C84045
:1026A00080BD9FED1B1A0AE09FED1B1A07E00A6828
:1026B000C2F3C102D04001EE100AB8EE411A02EE98
:1026C00010CA9FED163AB8EE422A486B81EE021A04
:1026D0006FF35F2002EE100A20EE030AB8EE422AE2
:1026E000486B30EE020AB7EE002AC0F3462030EE07
:1026F000020A013021EE000A01EE100AB8EE411A7A
:1027000080EE010ABCEEC00A10EE100A80BD00BFC8
:102710000024F44A0024744C0024744A0000003958
:102720002DE9F04381B0002800F0388140F60047E1
:1027300040F6F0490446C4F20247C4F20249F8697F
:1027400059F8C81C227800F01808D00601F00306DA
:1027500028D5B8F1080F1AD0B8F1180F08BF022E0B
:1027600015D0E1693868002900F0938140F4807049
:102770003860FFF723F90546386880050BD4FFF76A
:102780001DF9401B02284FF00300F5D948E2E0692B
:10279000002800F00381B869216A20F47C1040EA27
:1027A0000140B8612078C00731D0B8F1100F2AD0AD
:1027B000B8F1180F08BF032E25D06568B5F5A02F16
:1027C00000F0C081B5F5803F00F0CF81002D40F0D2
:1027D000C181386820F480303860386820F4801077
:1027E0003860386820F480203860FFF7E7F8054645
:1027F000386880030BD5FFF7E1F8401B64284FF0E1
:102800000300F5D90CE26068002800F0C78020784A
:10281000800765D5B8F1000F21D0B8F1180F08BFB7
:10282000012E1CD0E1683868002900F06781216919
:1028300020F0180008433860386840F00100386024
:10284000FFF7BCF8054600BF3868800741D4FFF7A2
:10285000B5F8401B02284FF00300F5D9E0E1E0682D
:10286000002800F09B80B8F1000F26D1396820695C
:1028700001F01801814220D0396821F01801084385
:102880003860FFF7B9FE396A46F65C1201F00F01B5
:10289000C0F60002515C40F2600201F01F0120FA14
:1028A00001F140F23400C2F200000068C2F20002FE
:1028B0001160FFF7C7F8002870D1FFF77FF80546D1
:1028C0003868800705D4FFF779F8401B0228F7D94C
:1028D0007DE03869616920F4FE0040EA014038611A
:1028E000207800075ED42078400774D420788006D2
:1028F00000F1A380A56A002D00F01F82B8F1180F27
:1029000040F0DA8059F8C81C59F8BC0C012D45D0AC
:10291000E26A01F00303934240D1C1F30521226B27
:1029200091423BD1626B01466FF35F21013A9142C4
:1029300034D1C0F34621A26B013A91422ED1C0F3AB
:102940000641E26B013A914228D1C0F30660216C46
:102950000139884222D159F8B80CC0F3CC00E16C9F
:10296000884200F0EA8159F8C80C20F0100049F8BC
:10297000C80CFFF723F80546FFF720F8A842FBD064
:10298000E06CC00049F8B80C59F8C80C40F01000D1
:1029900049F8C80C002001B0BDE8F083012001B067
:1029A000BDE8F083A169D9F8000000295CD040F0AF
:1029B0008060C9F80000FFF701F80546D9F800006B
:1029C000000190D4FEF7FAFF401B0228F6D903203D
:1029D00001B0BDE8F0834FF62446CFF6FF76B85934
:1029E000C00712D1B85940F00100B851FEF7E6FF18
:1029F000054600BFB859C00707D1FEF7DFFF401BEF
:102A000002284FF00300F5D90AE1A068002800F081
:102A1000BF80052800F0E180012800F0EA80D9F8A5
:102A20000010852840F0108141F00400C9F8000032
:102A3000D9F8000040F08000D9E0616A38680029C8
:102A40006ED040F480503860FEF7B8FF054600BFF6
:102A5000386880043FF54EAFFEF7B0FF401B0228F8
:102A60004FF00300F4D9DBE020F08060C9F80000EB
:102A7000FEF7A4FF054600BFD9F8000000017FF56E
:102A800032AFFEF79BFF401B02284FF00300F3D943
:102A9000C6E020F480703860FEF790FF054600BF66
:102AA000386880057FF57EAEFEF788FF401B022860
:102AB0004FF00300F4D9B3E0386820F0807038603C
:102AC000FEF77CFF022D05460CD100BF386880015F
:102AD00040F1C980FEF772FF401B02284FF003004F
:102AE000F4D99DE03868800140F11E81FEF766FF51
:102AF000401B02284FF00300F4D991E020F00100C0
:102B00003860FEF75BFF0546386880077FF5E8AE62
:102B1000FEF754FF401B02284FF00300F4D97FE07A
:102B200020F480503860FEF749FF0546386880047D
:102B30007FF5E0AEFEF742FF401B02284FF0030096
:102B4000F4D96DE0386840F480203860386820F4AB
:102B5000801009E03868B5F5A81F64D140F48020E2
:102B60003860386840F480103860386840F480304D
:102B70003860FEF723FF0546386880033FF547AE0F
:102B8000FEF71CFF401B64284FF00300F4D947E018
:102B9000D9F8000020F00100C9F80000D9F80000C1
:102BA00020F08000C9F80000D9F8000020F00400EF
:102BB000C9F80000FEF702FF054641F2883600BF63
:102BC000D9F8000080077FF591AEFEF7F7FE401BB5
:102BD000B0424FF00300F3D922E0D9F8000040F0F2
:102BE0000400C9F80000D9F8000020F08000C9F8FE
:102BF0000000D9F8000040F00100C9F80000FEF71D
:102C0000DDFE054641F28836D9F8000080073FF521
:102C10006DAEFEF7D3FE401BB0424FF00300F3D978
:102C200001B0BDE8F08320F480303860386820F4CB
:102C300080203860386820F480103860FEF7BEFECF
:102C4000002D054698D1D3E521F00100C9F8000018
:102C5000D9F8000020F00400C9F80000D9F80000FD
:102C600020F08000C9E759F8C80C43F6037104F15D
:102C70002C0388430ECB084340EA0220A16B49F89D
:102C8000C80C4FF47E4202EB4121E26B581E4FF418
:102C9000FE0389B203EB02426FF35F20084402F4A3
:102CA000FE01226C4FF0FE4303EB0262084402F087
:102CB000FE41084449F8BC0C59F8C80C20F010003B
:102CC00049F8C80CE06CC00049F8B80C59F8C80CB9
:102CD00040F0100049F8C80C59F8C80C616C20F09D
:102CE0000C00084349F8C80C59F8C80CA16C20F036
:102CF0002000084349F8C80C59F8C80C40F480304B
:102D000049F8C80C386840F080703860FEF756FE0D
:102D100004463868800110D4FEF750FE001B0228DC
:102D20004FF00300F5D97BE759F8C80C4FF6FC715A
:102D3000CFF6F871084049F8C80C002001B0BDE892
:102D4000F0830000F0B581B048B30446216800204C
:102D5000E268A0624FF0010019B90F2A01D901B051
:102D6000F0BDE36B083200EB5313D20803FB02F211
:102D700009B9082AF3D843F60000C4F200008142E2
:102D80000BD043F20000C4F20100814205D043F6AB
:102D90000040C4F20000814204D1102A02D901206F
:102DA00001B0F0BD94F8890030B9002084F88800A3
:102DB000204600F06FF82168022084F88900086836
:102DC00020F0010008608B68A7696268B7F1806F26
:102DD00003F4F81C0ED12AB1B2F5800F0AD1A36B0F
:102DE00073B903E0A36BB3F1805F05D10B6843F4C3
:102DF00080530B60530203D4E3684FF0010E0DE0E3
:102E0000E368072B08D3D1F800E0266D2EF4807517
:102E100035434FF0000E04E04FF0000E0D6825F42E
:102E200080750D60E569A66A45EA0C05E06B2E43E6
:102E300030431843A568266963698860606B3A432C
:102E4000676A1043A26B384310433043226A184329
:102E5000E36C10431843A26C2843A36D1043E26D4A
:102E60001843236E10431843C860086DBEF1000F6D
:102E700020F00100086505D1C868626D20F00040AF
:102E80001043C86000200121C4F88C0084F8891028
:102E900001B0F0BDB0B5AAB00446002502A8882153
:102EA0002995CDE92755CDE92555FDF7E2FA2068AA
:102EB00043F60001C4F20001884201D02AB0B0BD3F
:102EC0004FF08050029002A803951E95FEF754FE25
:102ED000002818BFFDF7B4FD40F68C40C4F2024054
:102EE000016941F480410161016901F4804101916E
:102EF0000199016841F002010160006825A900F014
:102F00000200019001984FF4604025900220269025
:102F10000020CDE927000520299040F20040C4F2AE
:102F20000220FEF771FC2AB0B0BD00002DE9F0438D
:102F300081B005689946174604460E46FEF73EFDE9
:102F400094F8891001290CD1002E18BF002F03D14D
:102F5000012001B0BDE8F083804694F88800012884
:102F600003D1022001B0BDE8F083012084F888007D
:102F70000420002184F88900C4F88C10E666A4F8C7
:102F80007070A4F872706166A4F86810A4F86A10F2
:102F9000A068A167B0F5C02F2068E16704D101687F
:102FA00021F40061016004E0C168022262F3524131
:102FB000C16041684FF6FF72914339444160016836
:102FC00041F0010101606168B1F5800F03D1016832
:102FD00041F400710160E268102A55D343F6000104
:102FE000C4F2000188420CD043F60041C4F2000153
:102FF000884206D043F20001C4F20101884240F049
:103000008380B4F87210002900F0B58048F20805FA
:1030100019F101011FD000BF416929420AD0006B9C
:10302000E16E41F8040BE166B4F872000138A4F8CF
:10303000720006E0FEF7C2FCA0EB0800484580F0F5
:10304000AB80B4F87200002800F0958020684169D8
:103050002942E4D1EEE7416929420DD0006BE16ECF
:1030600041F8040BE166B4F872000138A4F872006C
:10307000B4F8720030B97EE0FEF7A0FCB4F872003C
:10308000002878D02068E6E7B4F87210072A3DD807
:10309000002970D019F101011FD04169C90706D17B
:1030A000FEF78CFCA0EB080048450CD374E090F8C8
:1030B0003000E16E0870E06E0130E066B4F8720036
:1030C0000138A4F87200B4F87200002853D02068C8
:1030D0004169C907E4D0EAE720684169C90702D11C
:1030E000FEF76CFC0BE090F83000E16E0870E06ECB
:1030F0000130E066B4F872000138A4F87200B4F848
:1031000072000028E8D136E0B4F8721099B319F1D2
:1031100001011CD04069C00706D1FEF74FFCA0EBAF
:10312000080048450AD337E0288EE16E21F8020BEB
:10313000E166B4F872000138A4F87200B4F87200C5
:10314000C8B120684069C007E7D0EDE72068406952
:10315000C00702D1FEF732FC09E0288EE16E21F8AB
:10316000020BE166B4F872000138A4F87200B4F8FA
:1031700072000028EAD1204601F018FC012084F8F2
:103180008900002084F88800D4F88C00002818BF3B
:10319000012001B0BDE8F083204601F007FCD4F81F
:1031A0008C0040F48070C4F88C00012084F8890001
:1031B000002084F88800032001B0BDE8F0830000FF
:1031C0002DE9F04381B0D0F800901D461746044623
:1031D0000E46FEF7F3FB94F8891001290CD1002E5E
:1031E00018BF002F03D1012001B0BDE8F083804655
:1031F00094F88800012803D1022001B0BDE8F083D3
:1032000001210320002284F8881084F88900C4F882
:103210008C206666A4F86870A4F86A70E266A4F868
:103220007020A4F87220A068A267B0F5C02F2068B3
:10323000E26704D10168034641F4006204E00346FA
:1032400053F80C2F61F352421A6041684FF6FF7237
:10325000914339444160016841F0010101606168B6
:10326000B1F5800F03D1016841F400710160E2689B
:10327000102A51D343F60001C4F2000188420CD059
:1032800043F60041C4F20001884206D043F2000137
:10329000C4F20101884240F0C380B4F86A100029EA
:1032A00000F01B81691C23D04169890706D4FEF711
:1032B00085FBA0EB0800A8420AD33AE1616E51F801
:1032C000042B02626166B4F86A000138A4F86A004F
:1032D000B4F86A00002800F000812068416989077D
:1032E000E5D5EBE7FEF76AFBB4F86A0090B9F4E0C5
:1032F00041698907F6D5616E51F8042B0262616657
:10330000B4F86A000138A4F86A00B4F86A0000282A
:1033100000F0E3802068EBE7B4F86A10072A00F2B7
:103320008180002900F0D980691C42D04FF6FE71DF
:103330008E1E4F1C4169890706D4FEF73FFBA0EBA8
:103340000800A8422AD3F4E0B4F86A10042909D38B
:10335000E16B402906D9616E51F8042B02623046B8
:10336000616616E0B4F86A1002290AD3E16B41B134
:10337000606E30F8021BA9F8201060664FF6FE70F0
:1033800007E0616E097880F82010606E0130606699
:103390003846B4F86A100844A4F86A00B4F86A0021
:1033A000002800F09A80206841698907CCD4C4E7DE
:1033B00020684169890702D4FEF700FB2BE0B4F8CE
:1033C0006A1004290BD3E16B412908D3616E51F8CF
:1033D000042B02626166B4F86A00043819E0B4F89C
:1033E0006A1002290BD3E16B49B1606E30F8021B01
:1033F000A9F820106066B4F86A00023809E0616E2E
:10340000097880F82010606E01306066B4F86A00B8
:103410000138A4F86A00B4F86A000028C8D15CE05A
:10342000B4F86A10002958D0691C34D04FF6FE71E8
:103430004E1C4169890706D4FEF7C0FAA0EB0800CC
:10344000A8421AD375E0B4F86A10022909D3E16BD7
:1034500039B1616E51F8042B02624FF6FE7061665D
:1034600006E0606E30F8021BA9F820106066304656
:10347000B4F86A100844A4F86A00B4F86A0060B3AB
:10348000206841698907DED4D6E7FEF797FAB4F8D9
:103490006A0000BB21E041698907F6D5B4F86A10DB
:1034A00002290AD3E16B41B1616E51F8042B02622B
:1034B0006166B4F86A00023808E0606E30F8021BFA
:1034C000A9F820106066B4F86A000138A4F86A0010
:1034D000B4F86A0008B12068DDE7681C14D000BFAA
:1034E00020684069000713D4FEF768FAA0EB0800D3
:1034F000A842F5D3D4F88C0040F02000C4F88C002A
:1035000006E000BFFEF75AFA206840690007F9D5C7
:10351000204601F04BFA012084F88900002084F84D
:103520008800D4F88C00002818BF012001B0BDE845
:10353000F083204601F03AFAD4F88C0040F4807011
:10354000C4F88C00012084F88900002084F88800E9
:10355000032001B0BDE8F083042888BF7047DFE88E
:1035600000F00314263738004EF21000CEF20000AF
:10357000016821F00401016040F6E440C4F2024019
:10358000016821F00C01016070474EF21000CEF28C
:1035900000000168012221F00401016040F6E440CE
:1035A000C4F20240016862F38301016070474EF289
:1035B0001000CEF200000168022221F00401016037
:1035C00040F6E440C4F20240016862F38301016006
:1035D00070474EF21000CEF20000016841F0040185
:1035E00001607047411E0020B0EB116F1CBF01202D
:1035F00070474EF21002CEF20002516090601168E6
:1036000041F00301116070474EF21000CEF200004D
:103610000068400744BF0420704740F6E440C4F20D
:103620000240006800F00C01081FB0FA80F0400969
:10363000082908BF022070472DE9F04F03AF91B071
:1036400040F2301AC2F2000A9AF843009AF8449005
:103650009AF84580AB2805D1B9F1CD0F08BFB8F174
:10366000B40F4ED09AF80010884240D1B9F1020F41
:10367000A9F10101C0F0E08100220023584043B2CB
:103680004600C3F3C21376B283EA4000C6F3C21306
:10369000460083EA400073B24600C3F3C21376B219
:1036A00083EA4000C6F3C213460083EA400073B2C7
:1036B0004600C3F3C21376B283EA4000C6F3C213D6
:1036C000460083EA400073B24600C3F3C21376B2E9
:1036D00083EA4000C6F3C213013283EA4003D0B24A
:1036E000814240F3AA81504490F84300C6E70AF1B2
:1036F00043003221FCF79BFEA7F10C04A546BDE870
:10370000F08F9AF84EC00022AB23002159404BB2F3
:103710004D00C3F3C2136DB283EA4101C5F3C21376
:103720004D0083EA41016BB24D00C3F3C2136DB289
:1037300083EA4101C5F3C2134D0083EA41016BB234
:103740004D00C3F3C2136DB283EA4101C5F3C21346
:103750004D0083EA41016BB24D00C3F3C2136DB259
:1037600083EA4101C5F3C213082A83EA41050AEB43
:10377000020393F8444093F8451085EA04056CB2BF
:103780004FEA4506C4F3C21476B284EA4505C6F38F
:10379000C2164FEA450486EA450665B24FEA46047A
:1037A000C5F3C21564B285EA4606C4F3C2154FEAF2
:1037B000460485EA460665B24FEA4604C5F3C215DB
:1037C00064B285EA4606C4F3C2154FEA460485EAA8
:1037D000460665B24FEA4604C5F3C21564B285EAEF
:1037E0004606C4F3C21585EA460681EA06014EB2D2
:1037F0004FEA4105C6F3C2166DB286EA4101C5F330
:10380000C2164FEA410586EA41016EB24FEA410510
:10381000C6F3C2166DB286EA4101C5F3C2164FEA7D
:10382000410586EA41016EB24FEA4105C6F3C21670
:103830006DB286EA4101C5F3C2164FEA410586EA38
:1038400041016EB24FEA4105C6F3C2166DB286EA77
:103850004101C5F3C21686EA410135D093F84660AE
:1038600093F8473071404EB24D00C6F3C2166DB2A8
:1038700086EA4101C5F3C2164D0086EA41016EB2E7
:103880004D00C6F3C2166DB286EA4101C5F3C216F9
:103890004D0086EA41016EB24D00C6F3C2166DB20C
:1038A00086EA4101C5F3C2164D0086EA41016EB2B7
:1038B0004D00C6F3C2166DB286EA4101C5F3C216C9
:1038C000043286EA410121E7C9B28C457FF4CAAED1
:1038D0000120FDF727FE40F20040C4F202208021C3
:1038E000FEF75EF8FEF76AF8CAF808009AF80020BA
:1038F0009AF81D009AF81E1007F8350C07F8341CCA
:10390000BAF81F00BAF8211027F8330C08BA4BF2A6
:103910000F43000C07F8382C27F8373C27F8310CF8
:10392000DAF824000023000E07F82F0CDAF8240040
:10393000000C07F82E0CDAF82400000A07F82D0C0A
:10394000DAF824009AF8231007F82C0C07F82B1C3F
:103950000020A7F1380100BF5A4053B25600C3F30C
:10396000C21376B283EA4202C6F3C213560083EA58
:10397000420273B25600C3F3C21376B283EA420224
:10398000C6F3C213560083EA420273B25600C3F371
:10399000C21376B283EA4202C6F3C213560083EA28
:1039A000420273B25600C3F3C21376B283EA4202F4
:1039B000C6F3C2130C2883EA420301EB00025678D7
:1039C00083EA06035EB24FEA4305C6F3C2166DB240
:1039D00086EA4303C5F3C2164FEA430586EA43036A
:1039E0006EB24FEA4305C6F3C2166DB286EA4303D0
:1039F000C5F3C2164FEA430586EA43036EB24FEAA7
:103A00004305C6F3C2166DB286EA4303C5F3C21678
:103A10004FEA430586EA43036EB24FEA4305C6F315
:103A2000C2166DB286EA4303C5F3C21686EA4303A3
:103A300069D0927802308FE700230AEB010090F8FA
:103A40004300D9B2814240F0B28640F20040C4F255
:103A500002208021FDF7A4FFFDF7B0FFA8F1A2012D
:103A60000329CAF808003FF647AEDFE811F004006A
:103A7000E703590021029AF847109AF84600090412
:103A80009AF8482041EA00609AF8491040EA02207A
:103A9000DAF84A30441848F20001C0F6000118BABA
:103AA0008C424FF04E01CAE90540C0F00D844CF243
:103AB0000003C0F60103984280F00684011B5209FE
:103AC0008AF802204A0BCB044FF0010818BF08EB1C
:103AD0005132A0428AF8032040F2F383002500BF50
:103AE0002046FCF7FBFF05440120FDF71BFDDAF83B
:103AF000180004F500548442EDB2F1D3002D00F01B
:103B0000E0834E21E0E3BAF8046007F82A3C82B073
:103B10000AF11003A7F1380101200F2200F043BE83
:103B2000DAF84600DAF8141005BA40F2AC10C2F226
:103B30000000DAF818200368521A9E6801329208D1
:103B400046F001060AF143049E60FDF72FFB4E216B
:103B50004AF2094385429AF9002008BF592127F803
:103B6000373C030E07F8343C030C07F8333C030AD8
:103B700007F8382C07F8351C07F8323C07F8310CE9
:103B8000C2F3C213560083EA420273B25600C3F373
:103B9000C21376B283EA4202C6F3C213560083EA26
:103BA000420273B25600C3F3C21376B283EA4202F2
:103BB000C6F3C213560083EA420273B25600C3F33F
:103BC000C21376B283EA4202C6F3C213560083EAF6
:103BD000420273B25600C3F3C21376B283EA4202C2
:103BE000C6F3C213560083EA420273B282F0120295
:103BF000C3F3C213560083EA420273B25600C3F302
:103C0000C21376B283EA4202C6F3C213560083EAB5
:103C1000420273B25600C3F3C21376B283EA420281
:103C2000C6F3C213560083EA420273B25600C3F3CE
:103C3000C21376B283EA4202C6F3C213072583EAAF
:103C40004202560053B276B285EA4205002B48BFC5
:103C50005500C6F3C21385F04802560083EA4202BB
:103C600073B25600C3F3C21376B283EA4202C6F3BC
:103C7000C213560083EA420273B25600C3F3C21362
:103C800076B283EA4202C6F3C213560083EA4202C6
:103C900073B25600C3F3C21376B283EA4202C6F38C
:103CA000C21383EA420251404AB24B00C2F3C2122D
:103CB0005BB282EA4101C3F3C2124B0082EA4101C6
:103CC0005AB24B00C2F3C2125BB282EA4101C3F3A3
:103CD000C2124B0082EA41015AB24B00C2F3C21237
:103CE0005BB282EA4101C3F3C2124B0082EA410196
:103CF0005AB24B00C2F3C2125BB282EA4101C3F373
:103D0000C21282EA410181EA10614AB24B00C2F359
:103D1000C2125BB282EA4101C3F3C2124B0082EAD3
:103D200041015AB24B00C2F3C2125BB282EA4101B6
:103D3000C3F3C2124B0082EA41015AB24B00C2F3F4
:103D4000C2125BB282EA4101C3F3C2124B0082EAA3
:103D500041015AB24B00C2F3C2125BB282EA410186
:103D6000C3F3C21282EA410181EA10414AB24B0018
:103D7000C2F3C2125BB282EA4101C3F3C2124B002A
:103D800082EA41015AB24B00C2F3C2125BB282EA2C
:103D90004101C3F3C2124B0082EA41015AB24B0007
:103DA000C2F3C2125BB282EA4101C3F3C2124B00FA
:103DB00082EA41015AB24B00C2F3C2125BB282EAFC
:103DC0004101C3F3C21282EA410181EA10214AB2E1
:103DD0004B00C2F3C2125BB282EA4101C3F3C212CA
:103DE0004B0082EA41015AB24B00C2F3C2125BB2ED
:103DF00082EA4101C3F3C2124B0082EA41015AB286
:103E00004B00C2F3C2125BB282EA4101C3F3C21299
:103E10004B0082EA41015AB24B00C2F3C2125BB2BC
:103E200082EA4101C3F3C21282EA4101484041B231
:103E30004200C1F3C21152B281EA4000C2F3C21182
:103E4000420081EA400051B24200C1F3C21152B2B5
:103E500081EA4000C2F3C211420081EA400051B23F
:103E60004200C1F3C21152B281EA4000C2F3C21152
:103E7000420081EA400051B24200C1F3C21152B285
:103E800081EA4000C2F3C211BAF8046081EA40003E
:103E900007F8300C82B00AF11003A7F138010120B5
:103EA0000922009601F07CFE02B0204600F081BCA1
:103EB000002447F8404CFDF78FFC042047F8380CED
:103EC000022047F8340C012047F82C0C0720A7F1FA
:103ED000380547F8300CA7F140012846FDF736FBBE
:103EE0008046FDF7C7FB0A20FDF71CFB0AF11C0EFC
:103EF0009EE84F50A7F1380B8BE84F50DAF83C00A2
:103F0000BAF8401047F8180C9AF84200DAF83890DE
:103F100027F8141C9AF8461007F8120C222047F8CC
:103F20001C9C9AF84B2007F8370C07F8361CBAF897
:103F30004700BAF8491027F8350C08BA000C27F8E2
:103F4000330C6FF0010007F8312C00BF29188A7874
:103F5000C978624053B25600C3F3C21376B283EA03
:103F60004202C6F3C213560083EA420273B25600FD
:103F7000C3F3C21376B283EA4202C6F3C2135600F9
:103F800083EA420273B25600C3F3C21376B283EAE5
:103F90004202C6F3C213560083EA420273B25600CD
:103FA000C3F3C21376B283EA4202C6F3C2130230ED
:103FB00083EA4202242881EA02014AB24FEA41031D
:103FC000C2F3C2125BB282EA4101C3F3C2124FEAEA
:103FD000410382EA41015AB24FEA4103C2F3C212DD
:103FE0005BB282EA4101C3F3C2124FEA410382EAA3
:103FF00041015AB24FEA4103C2F3C2125BB282EAF4
:104000004101C3F3C2124FEA410382EA41015AB2AD
:104010004FEA4103C2F3C2125BB282EA4101C3F329
:10402000C21282EA410491D107F8124C37F8140CFD
:1040300017F8124CA7F13806A7F1280E40EA0444FD
:104040004CF200004ECE9EE8205257F818BCC0F645
:10405000010000F5005088B0CDE9006502AD85E8AB
:104060000052CDE905B4FCF7B7FD08B040429AF91B
:104070000010C5B24E204AF20552A84508BF59208B
:1040800007F8401C27F83F2C07F83D0CC1F3C2127B
:104090004B0082EA41015AB24B00C2F3C2125BB23A
:1040A00082EA4101C3F3C2124B0082EA41015AB2D3
:1040B0004B00C2F3C2125BB282EA4101C3F3C212E7
:1040C0004B0082EA41015AB24B00C2F3C2125BB20A
:1040D00082EA4101C3F3C2124B0082EA41015AB2A3
:1040E0004B00C2F3C2125BB282EA4101C3F3C212B7
:1040F0004B0082EA41015AB281F00A01C2F3C212B6
:104100004B0082EA41015AB24B00C2F3C2125BB2C9
:1041100082EA4101C3F3C2124B0082EA41015AB262
:104120004B00C2F3C2125BB282EA4101C3F3C21276
:104130004B0082EA41015AB24B00C2F3C2125BB299
:1041400082EA4101C3F3C212072682EA41014B0011
:104150004AB25BB286EA4106002A48BF4E00C3F36A
:10416000C21286F04A014B0082EA41015AB24B006A
:10417000C2F3C2125BB282EA4101C3F3C2124B0026
:1041800082EA41015AB24B00C2F3C2125BB282EA28
:104190004101C3F3C2124B0082EA41015AB24B0003
:1041A000C2F3C2125BB282EA4101C3F3C2124B00F6
:1041B00082EA41015AB248404100C2F3C21249B2F8
:1041C00082EA4000C1F3C211420081EA400051B2CC
:1041D0004200C1F3C21152B281EA4000C2F3C211DF
:1041E000420081EA400051B24200C1F3C21152B212
:1041F00081EA4000C2F3C211420081EA400051B29C
:104200004200C1F3C21152B281EA4000C2F3C211AE
:10421000BAF8046081EA400007F83C0C82B00AF169
:104220001003A7F1400101200522009601F0B8FC1F
:1042300002B0A84540F0BB8200F0B6FE9AF801003B
:1042400001287FF459AADAF84600DAF8141090FA37
:1042500080FBA9F108048B454FF04E00C0F0998116
:10426000DAF818108B4500F294815BFA84F04CF276
:104270000001C0F60101884280F0F980E5B2E81D36
:1042800020F00700ADEB000147F84CDC47F8441C78
:104290008D46ADEB0009CD465FEA046847F8485CFF
:1042A00000F0158157F8440C0AF14A012A46FCF740
:1042B00071F8681E032805F0030C80F0DA800021F5
:1042C000ECE059218AF801804AF206209AF9002090
:1042D00027F8370C9AF8030007F8382C07F8351C34
:1042E00007F8340CC2F3C213560083EA420273B2D9
:1042F0005600C3F3C21376B283EA4202C6F3C21376
:10430000560083EA420273B25600C3F3C21376B278
:1043100083EA4202C6F3C213560083EA420273B232
:104320005600C3F3C21376B283EA4202C6F3C21345
:10433000560083EA420273B25600C3F3C21376B248
:1043400083EA4202C6F3C213560083EA420273B202
:1043500082F00C02C3F3C213560083EA420273B226
:104360005600C3F3C21376B283EA4202C6F3C21305
:10437000560083EA420273B25600C3F3C21376B208
:1043800083EA4202C6F3C213560083EA420273B2C2
:104390005600C3F3C21376B283EA4202C6F3C213D5
:1043A000072583EA4202560053B276B285EA4205F7
:1043B000002B48BF5500C6F3C21385F044025600D7
:1043C00083EA420273B25600C3F3C21376B283EAA1
:1043D0004202C6F3C213560083EA420273B2560089
:1043E000C3F3C21376B283EA4202C6F3C213560085
:1043F00083EA420273B25600C3F3C21376B283EA71
:104400004202C6F3C21383EA420251404AB24B0051
:10441000C2F3C2125BB282EA4101C3F3C2124B0083
:1044200082EA41015AB24B00C2F3C2125BB282EA85
:104430004101C3F3C2124B0082EA41015AB24B0060
:10444000C2F3C2125BB282EA4101C3F3C2124B0053
:1044500082EA41015AB24B00C2F3C2125BB282EA55
:104460004101C3F3C21282EA4101484061E14E209A
:104470008FE0A5EB0C0209F1010300211BF80150AC
:1044800058180BEB010600F8015C75785D54B5789F
:1044900004314570F6788A428670EFD157F8485C4F
:1044A000BCF1000F13D011F80B00BCF1010F09F89B
:1044B00001000CD0481C10F80B20BCF1020F09F8C9
:1044C000002004D0881C10F80B1009F800100120FF
:1044D000FDF728F857F8440C49462A46FBF72EFF0B
:1044E00000284DD047F8504CFDF776F9B8F1000F91
:1044F00042D042F220094FF00008A7F13806C4F27A
:104500000209002007E008F110001FFA80F857F8B0
:10451000485CA84530D2281A85B257F8440C102DB3
:1045200028BF102500EB0804C5F110017019FF2207
:104530000F2D88BF0021FBF772FF304621462A4627
:10454000FBF728FF08EB0B0102203246FDF7A0F82D
:10455000C0B900BFD9F80000C0071CBFD9F80000DF
:104560005FEAC070CFD0D9F80000C007CBD0D9F82F
:104570000000C007EED1C6E7FDF77CF8592004E043
:10458000592004E0FDF776F84E2057F8504C57F8C4
:104590004CDC9AF900104AF2063207F8381C27F86A
:1045A000372C07F8350C07F8344CC1F3C2124B0016
:1045B00082EA41015AB24B00C2F3C2125BB282EAF4
:1045C0004101C3F3C2124B0082EA41015AB24B00CF
:1045D000C2F3C2125BB282EA4101C3F3C2124B00C2
:1045E00082EA41015AB24B00C2F3C2125BB282EAC4
:1045F0004101C3F3C2124B0082EA41015AB24B009F
:10460000C2F3C2125BB282EA4101C3F3C2124B0091
:1046100082EA41015AB281F00C01C2F3C2124B008E
:1046200082EA41015AB24B00C2F3C2125BB282EA83
:104630004101C3F3C2124B0082EA41015AB24B005E
:10464000C2F3C2125BB282EA4101C3F3C2124B0051
:1046500082EA41015AB24B00C2F3C2125BB282EA53
:104660004101C3F3C212072682EA41014B004AB25C
:104670005BB286EA4106002A48BF4E00C3F3C2126D
:1046800086F046014B0082EA41015AB24B00C2F368
:10469000C2125BB282EA4101C3F3C2124B0082EA4A
:1046A00041015AB24B00C2F3C2125BB282EA41012D
:1046B000C3F3C2124B0082EA41015AB24B00C2F36B
:1046C000C2125BB282EA4101C3F3C21282EA410123
:1046D000484041B24200C1F3C21152B281EA4000E7
:1046E000C2F3C211420081EA400051B24200C1F35C
:1046F000C21152B281EA4000C2F3C211420081EA03
:10470000400051B24200C1F3C21152B281EA4000EE
:10471000C2F3C211420081EA400051B24200C1F32B
:10472000C21152B281EA4000C2F3C21181EA4000D4
:10473000604041B24200C1F3C21152B281EA40006E
:10474000C2F3C211420081EA400051B24200C1F3FB
:10475000C21152B281EA4000C2F3C211420081EAA2
:10476000400051B24200C1F3C21152B281EA40008E
:10477000C2F3C211420081EA400051B24200C1F3CB
:10478000C21152B281EA4000C2F3C211BAF8046009
:1047900081EA400007F8330C82B00AF11003A7F158
:1047A000380101200622009601F0FAF902B00AF160
:1047B00043003221FBF73BFEA7F10C04A546BDE800
:1047C000F08F0000FEE70000FEE70000FEE70000BB
:1047D0007047000070B540F62C46C4F2024656F809
:1047E0002C1C044621F0806046F82C0CFDF7E6F8FE
:1047F000054656F82C0C00010BD500BFFDF7DEF87E
:10480000401B022884BF032070BD56F82C0C000109
:10481000F4D4306843F60371884394E80E000843EB
:1048200040EA0220E16830604FF47E4202EB412111
:104830002269581E4FF4FE0389B203EB02426FF364
:104840005F20084402F4FE0162694FF0FE4303EB6F
:104850000262084402F0FE41084430613068A169F8
:1048600020F00C00084330603068E16920F020003F
:1048700008433060606A31680843306030684FF642
:10488000F87120F0100030607069226A884340EAB5
:10489000C2007061306840F01000306056F82C0C97
:1048A00040F0806046F82C0CFDF788F8044600BF05
:1048B00056F82C0C000144BF002070BDFDF77EF8B7
:1048C000001B032824BF032070BDF1E770B582B040
:1048D0004FF44A7000F088FA222865D1012000F0D8
:1048E00077FD10F0F80F5FD0A0F1080640F2301508
:1048F000C2F20005F4B205F1040C05F1430105F123
:10490000100301202246CDF800C000F0BDFF4FF09B
:10491000FF3050FA86F0022C3AD300230021002207
:104920002B4493F8433001315A4053B25600C3F33D
:10493000C21376B283EA4202C6F3C213560083EA78
:10494000420273B25600C3F3C21376B283EA420244
:10495000C6F3C213560083EA420273B25600C3F391
:10496000C21376B283EA4202C6F3C213560083EA48
:10497000420273B25600C3F3C21376B283EA420214
:10498000C6F3C21383EA4202CBB29842C8DC00E00D
:104990000022284490F84300D1B2814204D102B0F1
:1049A000BDE87040FEF748BE02B070BD016840F23D
:1049B0006F32D1F814C08B6943F008038B618B69A7
:1049C00043F010038B610B6823F001030B600B694C
:1049D00023EA02020A618A6822F440428A6090F85F
:1049E00089305FEA8C620BD5042B09D0D0F88C207B
:1049F00042F08002C0F88C208A6942F020028A616D
:104A000090F889305FEA4C620BD5032B09D0D0F8BF
:104A10008C2042F00402C0F88C208A6942F04002E7
:104A20008A615FEA8C5208D45FEACC5212D400212A
:104A3000A0F86A10A0F872107047D0F88C2042F0ED
:104A40000102C0F88C208A6942F400728A615FEA30
:104A5000CC52ECD5D0F88C2042F00802C0F88C2063
:104A60008A6942F480728A610021A0F86A10A0F875
:104A7000721070477047000070B582B040F2004479
:104A8000C4F20224204680210122FCF791FF01F0AC
:104A900045FA01F017FA18B340F23015C2F20005DA
:104AA000AA8D012002210023002601F041F90128EE
:104AB0004ED10DF10702012000218DF8076000F0B2
:104AC0001FFB05F143003221FBF7B1FCFCF776FF39
:104AD000A860204680210022FCF76AFF02B070BD6A
:104AE0001425204680210022FCF762FF0A20FCF7F3
:104AF00019FD204680210122FCF75AFF4FF49670E1
:104B0000FCF710FD204680210022FCF751FF0A200F
:104B1000FCF708FD204680210122FCF749FF4FF4F5
:104B20009670FCF7FFFC204680210022FCF740FF36
:104B30000A20FCF7F7FC204680210122FCF738FF11
:104B40004FF42F70FCF7EEFC013D2806C9D147E079
:104B50001425204680210022FCF72AFF0A20FCF7BA
:104B6000E1FC204680210122FCF722FF4FF49670E1
:104B7000FCF7D8FC204680210022FCF719FF0A2010
:104B8000FCF7D0FC204680210122FCF711FF4FF4F6
:104B90009670FCF7C7FC204680210022FCF708FF36
:104BA0000A20FCF7BFFC204680210122FCF700FF11
:104BB0004FF49670FCF7B6FC204680210022FCF7EB
:104BC000F7FE0A20FCF7AEFC204680210122FCF70C
:104BD000EFFE4FF42F70FCF7A5FC013D2806B8D17D
:104BE00000F0E2F9FCF7FABEB0B59CB040F6140450
:104BF00008A85021C4F20244FBF73BFC0020CDE999
:104C00000600CDE90400CDE9020054F8040C20F0C0
:104C1000300044F8040C54F8040C00F0300001900B
:104C2000019800BF206800075CBF20685FEA007041
:104C300005D42068000702D420680007F2D54FF49D
:104C40008031012009910221032408901291CDE9BD
:104C500013401220CDE915010C20CDE91711199050
:104C6000002508A8CDE91A55FDF75AFD08B172B61E
:104C7000FEE71F2002A931C102A80321CDE9055595
:104C80000795FDF7D3FA10B172B600BFFEE742F206
:104C90000000C4F202000168012262F30511016004
:104CA0001CB0B0BD4EF6885CCEF2000CDCF8000003
:104CB000012240F47000CCF8000040F60040C4F23D
:104CC000024002600022C261026203684EF6E321E4
:104CD000CFF6E2211940016040F28021C0F20111BB
:104CE0008262C26241638263C1630264016821F42B
:104CF0008021016002654FF0006142F21C00C4F2A5
:104D000002004CF8801C50F8041C4A0F062A05D8F3
:104D100001F06041B1F1404F18BF70470168C90709
:104D20000BD042F63B21C0F6190140F8101C46F6A4
:104D30007F61C4F65D4140F8101C016841F002013A
:104D40000160016841F0010101607047FEE7000069
:104D500040F20040C4F202204FF480510122FCF7DF
:104D600027BE00000A46014640F2D010C2F2000001
:104D70004FF0FF33FEF7DAB880B582B040F2D010C2
:104D8000C2F200000DF1070101224FF0FF33FEF7E0
:104D9000CDF89DF8070002B080BD000040F2004051
:104DA000C4F202204FF480510022FCF701BE000043
:104DB0000A46014640F2D010C2F200004FF0FF3325
:104DC000FEF7FEB980B582B08DF8070040F2D01032
:104DD000C2F200000DF1070101224FF0FF33FEF790
:104DE000EFF902B080BD0000B0B582B040F26405BA
:104DF000C2F20005E9680446884768698047686A26
:104E000070B1AA6A62B1200C8DF80500200A8DF8F5
:104E100006000DF1050003218DF8074090470AE0D8
:104E2000296AC4F307408847296AC4F307208847E2
:104E3000296AE0B28847E8698047A969044688473B
:104E400028698047204602B0B0BD0000F0B581B0AF
:104E500040F26407C2F200070D46F96814460646A0
:104E6000884778698047786A90B1BA6A82B1300C15
:104E70008DF80100300A8DF802000DF101000321C8
:104E80008DF8036090477A6A28462146904713E0E0
:104E9000396AC6F307408847396AC6F3072088474E
:104EA000396AF0B288473CB1013D00BFF8698047DC
:104EB00005F8010F013CF9D1B8698047386980478E
:104EC00001B0F0BDF0B581B040F26406C2F2000658
:104ED0000C46F1680546884770698047B26A45F01C
:104EE00004076AB1280C8DF80000280A8DF801002B
:104EF000684604218DF802708DF8034090470DE05C
:104F0000316AC5F307408847316AC5F307208847EF
:104F1000316AF8B28847316A20468847B0698047CD
:104F20003069804701B0F0BD2DE9F04182B040F218
:104F30006407C2F200078846F968144606468847A7
:104F400078698047BA6A46F0040582B1300C8DF862
:104F50000500300A8DF806000DF1050003218DF8DB
:104F600007509047BA6A40462146904714E0396A94
:104F7000C6F307408847396AC6F307208847396A6D
:104F8000E8B2884744B1A8F1010500BF396A15F8B5
:104F9000010F8847013CF9D1B869804738698047DB
:104FA00002B0BDE8F08100004EF60C50BFF34F8F09
:104FB000CEF200000168042201F4E061C0F2FA526E
:104FC00011430160BFF34F8F00BFFDE7B0B5052867
:104FD0005AD80C46DFE800F0032D545B62744FF49E
:104FE000106021460622FFF79FFF04F10E014FF4E7
:104FF00080700422FFF798FF04F10A014FF4A060CB
:105000000422FFF791FFA11D4FF470600422FFF707
:105010008BFFA07C40F22A12C2F20002E17CA37D49
:105020005070A08A9170A2F803001370002568B236
:10503000B0BD4FF4106021460622FFF707FF04F1D0
:105040000E014FF480700422FFF700FF04F10A0103
:105050004FF4A0600422FFF7F9FEA11D4FF4706029
:105060000422FFF7F3FE40F22A10C2F20000D0F84B
:1050700001100078C4F81210A075002568B2B0BD08
:10508000247814F0C50F2FD0FF2568B2B0BD0020E2
:105090000025FFF7A9FE207068B2B0BD21784FF45B
:1050A000D850FFF70FFFE1784FF4C850FFF70AFF21
:1050B000A1784FF4D050FFF705FF002568B2B0BDCE
:1050C0004FF4D850FFF790FE20704FF4C850FFF710
:1050D0008BFE05464FF4D050FFF786FE40EA0520D0
:1050E0006080002568B2B0BD00200025FFF77CFE7F
:1050F00040EA04010020FFF7E5FE68B2B0BD000001
:1051000010B5082802D9FF2148B210BD07293FD8A1
:105110001446DFE801F00420132A18353A402178BC
:1051200000294DD0012933D140F21012C2F2000201
:105130000121138801FA00F018434BE040010830C8
:1051400000F5F85015E021781F2921D840010830DA
:1051500000F500702FE040F21011C2F20001098842
:1051600021FA00F000F001001DE04001083000F5D8
:10517000F050FFF739FE80022080012148B210BDB7
:105180004001083000F5007009E021781F290ED990
:10519000F62148B210BD4001083000F53050FFF74D
:1051A00023FE00F01F002070012148B210BD400115
:1051B000083000F53050FFF785FE012148B210BDE0
:1051C00040F21012C2F200020121138801FA00F02D
:1051D00023EA0000108048B210BD0000B0B50F28CF
:1051E00029D80C46DFE800F0082A330D4453626FDB
:1051F0007E9313AA0AD919DE01F0F0FA002040B21A
:10520000B0BD208801F09EF9002040B2B0BD20461C
:1052100001F024FB002040B2B0BD4FF43850FFF73E
:10522000E3FD00F038003038B0FA80F0400920701B
:10523000002040B2B0BDFF2040B2B0BD2146002CDE
:1052400018BF08312046BDE8B04001F0D3B94FF493
:10525000A850FFF7C9FD05464FF4B850FFF7C4FD4D
:1052600005F0F00141EA00202080002040B2B0BDEE
:105270002088040AC1B24FF4B050FFF723FE4FF468
:10528000C0502146FFF71EFE002040B2B0BD4FF4D3
:10529000B050FFF7A9FD05464FF4C050FFF7A4FD3D
:1052A00045EA00202080002040B2B0BD61784FF474
:1052B0009850FFF707FE21784FF4A050FFF702FE49
:1052C000002040B2B0BD4FF49850FFF78DFD054669
:1052D0004FF4A050FFF788FD40EA05202080002011
:1052E00040B2B0BD40F26400C2F20000817821708B
:1052F000C17861700179A1704179E1708179217182
:10530000C07960710020A071002040B2B0BD4FF4A0
:105310003850FFF769FD00F07F014FF43850FFF778
:10532000D1FD4FF43850FFF75FFD40F080014FF49E
:105330003850FFF7C7FD002040B2B0BD4FF43850E1
:10534000FFF752FDC0F3801100F0380021702028D3
:105350004FF001011CBF38280021A0F11002102AD3
:10536000617029D8012140F2011301FA02F2C0F262
:1053700001031A4208BF0021A0F10802182AA170F7
:1053800020D8012000FA02F10122C0F201121142DC
:1053900018D0E070002040B2B0BD2078BDE8B04029
:1053A00001F094BA4FF43850FFF71EFD00F00100F1
:1053B0002070002040B2B0BD0021A0F10802182AE0
:1053C000A170DED90020E070002040B2B0BD000026
:1053D0002DE9F04F83B04001083000F5185B00F56F
:1053E0001C5440F264064FEA1B214FEA1429C2F212
:1053F00000064FF0000A019119E000BF316A002059
:105400008847316A48468847316AE0B28847F06980
:105410008047B169074688473069804745EA070AEF
:105420001FFA8AF0804504BF03B0BDE8F08FF06832
:10543000804770698047706A70B1B26A62B10020BB
:105440008DF80900019803218DF80A000DF109007B
:105450008DF80BB0904709E0316A00208847316A27
:1054600001988847316A5FFA8BF08847F069804776
:10547000B1690746884730698047F0683D02804738
:1054800070698047706A68B1B26A5AB100208DF8BD
:1054900009000DF1090003218DF80A908DF80B40E9
:1054A000904708E0316A00208847316A48468847BB
:1054B000316AE0B28847F0698047B169074688479A
:1054C0003069804755EA0708AAD0F06880477069BC
:1054D0008047706A70B1B26A62B100208DF809002D
:1054E000019803218DF80A000DF109008DF80BB029
:1054F000904709E0316A00208847316A019888475F
:10550000316A5FFA8BF08847F0698047B1690746D6
:10551000884730698047F0683D028047706980475E
:10552000706A00283FF46AAFB26A002A3FF466AF9F
:1055300000208DF809000DF1090003218DF80A9073
:105540008DF80B40904762E72DE9F04F85B042F2AD
:10555000080141EA401B40F264080BF58070050A1F
:105560000190C0B24FEA1B2403905FFA8BF0C2F2A5
:1055700000084FF0000902901FE000BFD8F820108B
:1055800000208847D8F8201028468847D8F82010EF
:1055900003988847D8F81C008047D8F818100746A9
:1055A0008847D8F81000804746EA07091FFA89F0B3
:1055B000824504BF05B0BDE8F08FD8F80C008047E5
:1055C000D8F814008047D8F8240078B1D8F82820FB
:1055D00062B100208DF811000DF1110003218DF84A
:1055E00012408DF813B090470CE000BFD8F820109F
:1055F00000208847D8F8201020468847D8F8201087
:1056000002988847D8F81C008047D8F81810074639
:105610008847D8F810008047D8F80C003E02804731
:10562000D8F814008047D8F8240078B1D8F828209A
:1056300062B100208DF81100019803218DF813004C
:105640000DF111008DF8125090470BE0D8F82010A2
:1056500000208847D8F8201028468847D8F820101E
:1056600003988847D8F81C008047D8F818100746D8
:105670008847D8F81000804756EA070A96D0D8F82D
:105680000C008047D8F814008047D8F8240078B17F
:10569000D8F8282062B100208DF811000DF111001A
:1056A00003218DF812408DF813B090470CE000BF35
:1056B000D8F8201000208847D8F8201020468847C6
:1056C000D8F8201002988847D8F81C008047D8F8EE
:1056D000181007468847D8F810008047D8F80C0003
:1056E0003E028047D8F814008047D8F824000028EC
:1056F0003FF444AFD8F82820002A3FF43FAF002001
:105700008DF81100019803218DF813000DF111009F
:105710008DF8125090473DE786B040F2004943F6BD
:105720000008C4F20229C4F20008FCF765F9FFF78B
:105730005BFA002740F68C400597C4F202400168EE
:10574000002241F08001016001684FF4845601F0AD
:10575000800100910099016841F002010160016837
:1057600001F0020100910099016841F0040101601B
:10577000016801F0040100910099016841F0010104
:10578000016000684FF4845100F00100009000981F
:105790004846FCF70DF909F580652846802100226E
:1057A0004FF0800AFCF704F9019601AE0124484647
:1057B0003146CDE902470497FCF726F828463146E2
:1057C000CDE901A4CDE90377FCF71EF84FF4807012
:1057D000CDE90107284631460397FCF715F840F25A
:1057E000D0104FF48001C2F2000007224FF0806316
:1057F000C0E9008100F118014FF08056C0E9027243
:10580000C0E90477C8C14FF08041C0E90977C2629E
:10581000C0E90D17C763C0E91277C0E91477C0E982
:1058200016770766FDF78EFA08B172B6FEE7FCF749
:10583000CBF810B172B600BFFEE740F2A815C2F275
:10584000000508F5FC31284640F8041F002181803E
:10585000C0E9051101210162FBF7DEFD08B172B656
:10586000FEE7484680210122FCF7A2F8FBF73CFA4C
:10587000FAF796FEFFF700F9287801302870FFF755
:1058800025F8FBF7C7F8F7E72DE9F04F85B00828B2
:1058900082BF4FF0FF3005B0BDE8F08F04464001F5
:1058A00000F1080630469B4692468946FFF79CFA6F
:1058B000074600F00F000238022882BF6FF0040094
:1058C00005B0BDE8F08FBAF1000F34D040F21018E7
:1058D000C2F2000808EB44000290408980B3002522
:1058E00007F00700042800F08680032848D0029FB4
:1058F00002286BD17D89002D61D103A920460822A1
:10590000354600F075FB06F5807528464021FFF707
:10591000D9FA00BF2846FFF767FA0028FAD10398A2
:10592000BDF81010CBF8000008BABDF812100E9A9E
:10593000000C10803CE06FF00D0005B0BDE8F08F6A
:105940000120019606F5407600FA04F802E000BF57
:10595000002D46D12046FFF73BFD05463046FFF7B8
:1059600043FAC8B3002DF3D140F21010C2F2000088
:10597000008810EA0800EBD0002005B0BDE8F08FE9
:10598000029F7D89DDB903A92046062200F030FB85
:1059900006F5807528464021FFF794FA2846FFF760
:1059A00023FA0028FAD10398BDF81010CBF80000B4
:1059B00008BA050C08EB040080217D8181705545F3
:1059C00088BF5546204649462A4669E02046294672
:1059D00000F006FC7D8165E06FF0030005B0BDE8D6
:1059E000F08F40F21018019EC2F2000807F0070085
:1059F00004287FF47AAF029F7D89002D49D103A945
:105A00002046022200F0F4FAB34606F580763046CE
:105A10004021FFF757FA00BF3046FFF7E5F90028AD
:105A2000FAD1BDF80C006FF0010100BA01EB10458E
:105A300040F2EB51A8B27D81884225D33046102137
:105A4000FFF740FA3046FFF7CFF90028FAD10BF5FF
:105A500000701F21FFF736FA0120B8F80010A040AF
:105A600021EA0000A8F80000002008EB04010BF573
:105A700040747881887000BF2046FFF7B5F9002890
:105A80006FF47A70F8D127E008EB040080215E46BD
:105A90008170A8B24946504588BF5546AAB22046F3
:105AA00000F0A6FA06F5807630464021FFF70AFAA4
:105AB0003046FFF799F90028FAD17989A8B2491B35
:105AC0000A04798108EB04020FBF002108EB0401EE
:105AD000897841F00101917005B0BDE8F08F0000B8
